:100000000C942A000C9434000C9434000C943400AA
:100010000C9434000C9434000C9434000C94340090
:100020000C9434000C9434000C9434000C94340080
:100030000C9434000C9434000C9434000C94340070
:100040000C9434000C9434000C9434000C94340060
:100050000C94340011241FBECFE5D8E0DEBFCDBF25
:100060000E9436000C9485010C94000040E062E090
:1000700082E00E94520041E060E081E00E94520074
:1000800062E082E00E942C01882331F041E060E0D0
:1000900081E00E94BF00F4CF40E060E081E00E9478
:1000A000BF00EECF813001F130F08230B1F183300A
:1000B00009F44CC00895413059F42AB381E090E02E
:1000C00002C0880F991F6A95E2F7822B8ABB0895B8
:1000D0002AB381E090E002C0880F991F6A95E2F789
:1000E000809582238ABB0895413059F427B381E07B
:1000F00090E002C0880F991F6A95E2F7822B87BBB8
:10010000089527B381E090E002C0880F991F6A9597
:10011000E2F78095822387BB0895413059F424B3D8
:1001200081E090E002C0880F991F6A95E2F7822B68
:1001300084BB089524B381E090E002C0880F991F2A
:100140006A95E2F78095822384BB0895413059F483
:1001500021B381E090E002C0880F991F6A95E2F711
:10016000822B81BB089521B381E090E002C0880F0B
:10017000991F6A95E2F78095822381BB08958130AB
:1001800001F130F08230B1F1833009F44CC00895B0
:10019000413059F42BB381E090E002C0880F991FE1
:1001A0006A95E2F7822B8BBB08952BB381E090E038
:1001B00002C0880F991F6A95E2F7809582238BBB56
:1001C0000895413059F428B381E090E002C0880FCF
:1001D000991F6A95E2F7822B88BB089528B381E0C6
:1001E00090E002C0880F991F6A95E2F780958223FC
:1001F00088BB0895413059F425B381E090E002C0F6
:10020000880F991F6A95E2F7822B85BB089525B365
:1002100081E090E002C0880F991F6A95E2F780950F
:10022000822385BB0895413059F422B381E090E0E8
:1002300002C0880F991F6A95E2F7822B82BB08954E
:1002400022B381E090E002C0880F991F6A95E2F71F
:100250008095822382BB08958130D1F028F08230CE
:1002600059F18330E9F14FC02BB381E090E0062EC5
:1002700002C0880F991F0A94E2F730E0822393238B
:1002800002C0959587956A95E2F7982F8BBB3BC086
:1002900028B381E090E0062E02C0880F991F0A94CF
:1002A000E2F730E08223932302C0959587956A9503
:1002B000E2F7982F88BB27C025B381E090E0062E97
:1002C00002C0880F991F0A94E2F730E0822393233B
:1002D00002C0959587956A95E2F7982F85BB13C064
:1002E00022B381E090E0062E02C0880F991F0A9485
:1002F000E2F730E08223932302C0959587956A95B3
:0E030000E2F7982F82BB892F0895F894FFCF63
:00000001FF
